{
  "contractName": "Pixel",
  "abi": [
    {
      "anonymous": false,
      "inputs": [
        {
          "indexed": false,
          "internalType": "string",
          "name": "pixel_data",
          "type": "string"
        }
      ],
      "name": "ValidPixel",
      "type": "event"
    },
    {
      "constant": false,
      "inputs": [
        {
          "internalType": "string",
          "name": "pixel",
          "type": "string"
        }
      ],
      "name": "accept_pixel",
      "outputs": [],
      "payable": true,
      "stateMutability": "payable",
      "type": "function"
    }
  ],
  "bytecode": "0x608060405234801561001057600080fd5b506101c6806100206000396000f3fe60806040526004361061001e5760003560e01c8063241ee6f814610023575b600080fd5b6100dc6004803603602081101561003957600080fd5b810190808035906020019064010000000081111561005657600080fd5b82018360208201111561006857600080fd5b8035906020019184600183028401116401000000008311171561008a57600080fd5b91908080601f016020809104026020016040519081016040528093929190818152602001838380828437600081840152601f19601f8201169050808301925050505050505091929192905050506100de565b005b66016bcc41e900003410156100f257600080fd5b7f9aa6893d643dd995f64e5cbbf819a48df05b5427d3582e21b7072e2190d085b7816040518080602001828103825283818151815260200191508051906020019080838360005b83811015610154578082015181840152602081019050610139565b50505050905090810190601f1680156101815780820380516001836020036101000a031916815260200191505b509250505060405180910390a15056fea265627a7a72315820c2662c6f8c03716dc4a27428ea2bfd9522cbde92383d0af656927a9d2588450164736f6c63430005100032",
  "source": "// SPDX-License-Identifier: GPL-3.0\n\npragma solidity >=0.4.22 <0.9.0;\n\ncontract Pixel {\n    event ValidPixel(string pixel_data);\n    function accept_pixel(string memory pixel) public payable {\n        require(msg.value >= 0.0004 ether);\n        emit ValidPixel(pixel);\n    }\n}",
  "sourcePath": "/Users/colet/BitBoard/deploy_contract/contracts/Pixel.sol",
  "compiler": {
    "name": "solc",
    "version": "0.5.16+commit.9c3226ce.Emscripten.clang"
  },
  "schemaVersion": "3.4.1",
  "updatedAt": "2022-02-01T23:34:38.014Z",
  "networkType": "ethereum",
  "devdoc": {
    "methods": {}
  },
  "userdoc": {
    "methods": {}
  }
}